:020000040800F2
:1000000000000A2041030008910300089103000842
:100010009103000891030008910300089103000870
:100020000000000000000000000000009103000834
:1000300091030008000000009103000891030008EC
:100040009103000800000000000000000000000014
:100050009103000891030008910300089103000830
:100060009103000891030008910300089103000820
:100070009103000891030008910300089103000810
:100080009103000891030008910300089103000800
:1000900091030008910300089103000891030008F0
:1000A00091030008910300089103000891030008E0
:1000B00091030008910300089103000891030008D0
:1000C00091030008910300089103000891030008C0
:1000D000000000009103000891030008910300084C
:1000E00091030008910300089103000891030008A0
:1000F0009103000891030008910300089103000890
:10010000910300089103000891030008910300087F
:10011000910300089103000891030008910300086F
:10012000910300089103000891030008910300085F
:10013000910300089103000891030008910300084F
:10014000910300089103000891030008910300083F
:10015000910300089103000891030008910300082F
:10016000910300089103000891030008910300081F
:10017000910300089103000891030008910300080F
:1001800091030008910300089103000891030008FF
:1001900091030008910300089103000891030008EF
:1001A00091030008910300089103000891030008DF
:1001B00091030008910300089103000891030008CF
:1001C00091030008910300089103000891030008BF
:1001D000910300089103000891030008000000004B
:1001E000910300089103000891030008910300089F
:1001F000910300089103000891030008910300088F
:10020000910300089103000891030008000000001A
:100210000000000091030008000000000000000042
:10022000910300089103000891030008910300085E
:10023000910300089103000891030008910300084E
:0C024000910300089103000891030008DE
:10024C0080B400AF00BFBD4680BC704780B400AF27
:10025C0000BFFDE780B400AF00BFBD4680BC704757
:10026C0080B483B000AF786000BF0C37BD4680BC53
:10027C00704780B400AF00231846BD4680BC704761
:10028C0080B500AFFFF7E6FF00BF80BD80B500AFC3
:10029C00FFF7F6FFFFF7D4FFFFF7D8FF0023184650
:1002AC0080BD00000348044B834202D0034B03B1D2
:1002BC0018477047000000200000002000000000DC
:1002CC00064B0749C91A891048BF0131491003D0A0
:1002DC00044B0BB101481847704700BF00000020C9
:1002EC00000000200000000010B5064C237843B934
:1002FC00FFF7D8FF044B13B10448AFF30080012380
:10030C00237010BD0000002000000000DC0300087A
:10031C0008B5054B1BB105490548AFF30080BDE896
:10032C000840FFF7CDBF00BF000000000400002014
:10033C00DC0300080D488546AFF300800C480D49DE
:10034C000D4A002302E0D458C4500433C4188C4224
:10035C00F9D30A4A0A4C002301E013600432A2428A
:10036C00FBD300F011F8FFF791FFFEE700000A2025
:10037C000000002000000020FC030008000000200A
:10038C001C000020FEE7000070B50D4B00260D4C44
:10039C001D1BB6EBA50F09D10B4C00F019F80B4B3C
:1003AC0000261D1BB6EBA50F05D170BD54F8043B00
:1003BC0001369847EDE754F8043B01369847F1E7CE
:1003CC00F4030008F4030008F4030008F803000821
:1003DC00F8B500BFF8BC08BC9E467047F8B500BF26
:0803EC00F8BC08BC9E467047F6
:0403F4001D030008DD
:0403F800F502000802
:0400000508000341AB
:00000001FF
